:020000040800F2
:10000000008001203D0900088D0900088D090008C5
:100010008D0900088D0900088D0900080000000006
:100020000000000000000000000000008D09000832
:100030008D090008000000008D09000891180008D3
:10004000000000008D0900088D0900088D090008D6
:100050008D0900088D0900088D0900088D09000828
:100060008D0900088D0900088D0900088D09000818
:100070008D0900088D0900088D0900088D09000808
:100080008D0900088D0900088D0900080000000096
:100090000000000000000000000000008D090008C2
:1000A0008D0900088D0900088D0900088D090008D8
:1000B0008D0900088D0900088D0900088D090008C8
:1000C0008D0900088D0900088D0900088D090008B8
:1000D0008D0900088D0900088D230008000000002C
:1000E0008D0900088D0900088D0900080000000036
:1000F0000000000000000000000000008D09000862
:10010000000000008D0900088D0900088D09000815
:1001100000000000000000000000000000000000DF
:100120008D0900088D0900088D0900088D09000857
:100130008D09000800000000000000000000000021
:100140000000000000000000000000008D09000811
:100150008D0900088D0900088D0900088D09000827
:100160008D0900088D090008000000000000000053
:10017000000000000000000000000000000000007F
:10018000000000000000000000000000000000006F
:040190008D090008CD
:1001A00010B5054C237833B9044B13B10448AFF3B1
:1001B00000800123237010BDE40000200000000037
:1001C0001073000808B5034B1BB103490348AFF394
:1001D000008008BD00000000E80000201073000847
:1001E00001F0FF01102A2BDB10F0070F08D010F8E8
:1001F000013B013A8B422DD010F0070F42B3F6D1EC
:10020000F0B441EA012141EA014122F007047FF004
:1002100000070023F0E80256083C85EA010586EA5B
:10022000010685FA47F5A3FA87F586FA47F6A5FA97
:1002300087F68EB9EED1F0BC01F0FF0102F00702A3
:1002400032B110F8013B013A83EA010313B1F8D14E
:100250000020704701387047002D06BF354603382F
:10026000073815F0010F07D1013015F4807F02BF68
:10027000013015F4C03F0130F0BC0138704700BFB9
:1002800080B582B000AF03460A46FB711346BB71CE
:10029000FB79184601F0C0F800BF0837BD4680BDA5
:1002A00090B583B000AF0446084611461A4623466F
:1002B000FB710346BB710B467B7113463B713B7E62
:1002C000042B12D1FB7900220021184600F018FF00
:1002D000FB7900220121184600F012FFFB79002271
:1002E0000221184600F00CFF05E0397EFB7932222E
:1002F000184600F005FF00BF0C37BD4690BD00005A
:1003000080B582B000AF0346FB71FB79002B05D0AE
:10031000044800F09FFD012000F0BAFD00BF08373F
:10032000BD4680BD4400002080B584B002AF786037
:100330000D4802F060FB0D490B4803F075FC632289
:1003400079680B4806F05AFB094B002283F86320BA
:10035000074B009300230C220021034803F0A0FB6D
:1003600000BF0837BD4680BD04010020AC74000802
:100370002002002080B582B002AF00F03FFB01F008
:10038000C9F8244801F02CF802F028F8224802F0BD
:1003900031F8224802F03EF8214802F04BF821489B
:1003A00002F058F800F0F6FB00F0C6FC00F024FE66
:1003B000002001F07BFA01F035FB00211A4802F021
:1003C000D3FA194802F017FB1849174803F02CFC20
:1003D000FF230093FF23FF220021134803F003FDB6
:1003E000002300930023002201210F4803F0FBFCAF
:1003F0000D4803F0F3FD002000F05EF8002001F04E
:100400000BF801F067F901F01DF801F013FE00BFD1
:10041000F7E700BF31040008A102000881020008CC
:10042000010300082903000804010020607F000880
:1004300080B584B002AF0346FB7100F04DF803466F
:10044000002B02D0012B24D028E0164B0093002370
:1004500028220021144803F023FB144B00930023AF
:1004600041223721104803F01BFB114B009300235E
:100470005A2205210C4803F013FB222300930D4B55
:1004800002228721002001F011FE012000F014F863
:1004900004E0FB79184600F02BF800BF00BF0837D6
:1004A000BD4680BD28730008040100203873000891
:1004B0003C7300080800002080B483B000AF0346FE
:1004C000FB71044AFB79137000BF0C37BD465DF821
:1004D000047B70470001002080B400AF034B1B7801
:1004E0001846BD465DF8047B704700BF0001002040
:1004F00080B584B002AF0346FB71FB79013B3A2B18
:1005000000F2EF8001A252F823F000BFF9050008C5
:1005100009060008E3060008190600082906000875
:10052000E3060008E3060008E3060008E306000807
:10053000E3060008E3060008E3060008E3060008F7
:10054000E3060008E3060008E3060008E3060008E7
:10055000E3060008E3060008E3060008E3060008D7
:10056000E3060008E3060008E3060008E3060008C7
:10057000E3060008B5060008E3060008E3060008E5
:10058000E306000839060008E3060008E306000851
:10059000E306000865060008E3060008E306000815
:1005A000E3060008E3060008E3060008E306000887
:1005B000E3060008E3060008E3060008E306000877
:1005C000E3060008E3060008E3060008E306000867
:1005D000E3060008E3060008E3060008E306000857
:1005E000E306000891060008E3060008E306000899
:1005F000E3060008A30600083221002000F014FEE4
:100600003A4B00221A706DE03221012000F00CFEFE
:10061000364B01221A7065E03221032000F004FEFF
:10062000324B03221A705DE03221022000F0FCFD03
:100630002E4B02221A7055E02D4B1B78FF2B04D055
:100640002B4B1B78184600F0E9FF00230093294B41
:1006500064221421284800F07FFF03461A46244BE9
:100660001A703FE0254B1B78FF2B04D0234B1B78DF
:10067000184600F0D3FF00230093214B642214217D
:10068000204800F069FF03461A461C4B1A7029E007
:10069000174B1B78184600F0C1FF154BFF221A704C
:1006A00020E0164B1B78184600F0B8FF134BFF22D2
:1006B0001A7017E0144B1B78FF2B04D0124B1B78D9
:1006C000184600F0ABFF00230093104B012241F6C7
:1006D00058310F4800F040FF03461A460A4B1A7083
:1006E00000E000BF00BF0837BD4680BD0400002009
:1006F00000000020150700084C73000801000020CE
:100700004D0700085073000803000020810800080E
:100710005473000880B500AF0A4B1B780133642284
:100720000021184600F02EF80346DAB2054B1A7085
:10073000054B1B78034A12781146184600F074FDE9
:1007400000BF80BDB80100200400002080B500AFCC
:100750000A4B1B78013B64220021184600F012F876
:100760000346DAB2054B1A70054B1B78034A127820
:100770001146184600F058FD00BF80BDB8010020AA
:100780000400002080B485B000AFF860B9607A60E2
:10079000FA68BB689A4201DABB68FB60FA687B685A
:1007A0009A4201DD7B68FB60FB6818461437BD4642
:1007B0005DF8047B7047000080B582B002AF01F0A5
:1007C00037F90346234AA2FB03235B099AB2224B63
:1007D0001A8001F06BF903461E4AA2FB03235B0952
:1007E0009AB21E4B1A8001F011F903461A461C4BAF
:1007F0001A80194B1B881A461A491B4806F0DCF868
:10080000164B1B881A461949194806F0D5F8144B9F
:100810001B881A461749184806F0CEF8124B009369
:10082000002328220021154803F03AF9104B0093C9
:10083000002341220021114803F032F90E4B0093AE
:1008400000235A2200210D4803F02AF900BFBD46BB
:1008500080BD00BF1F85EB51BA010020BC01002004
:10086000BE0100205C730008C0010020687300080E
:10087000E00100207873000800020020040100203D
:1008800080B582B002AF0E4802F0B5F80D4B1B7870
:10089000FF2B04D00B4B1B78184600F0BFFE002343
:1008A0000093094BFF224FF47A71084800F054FE80
:1008B00003461A46034B1A7000BFBD4680BD00BFF9
:1008C0000401002002000020B90700088873000816
:1008D00080B586B000AF7860144A154BD31A7B619F
:1008E0007B693B61134B1B68002B02D1114B124AF1
:1008F0001A60104B1A687B6813443A699A4207D20F
:1009000006F090F803460C221A604FF0FF3309E01E
:10091000084B1B68FB60074B1A687B681344054A49
:100920001360FB6818461837BD4680BD0080012063
:100930000004000084020020901800200D48854625
:1009400000F026F80C480D490D4A002302E0D45867
:10095000C4500433C4188C42F9D30A4A0A4C002309
:1009600001E013600432A242FBD306F061F8FFF706
:1009700001FDFEE70080012000000020E4000020CF
:10098000188F0008E400002090180020FEE7000007
:1009900080B500AF164BD3F88830154A43F4700386
:1009A000C2F88830134B1B68124A43F001031360EE
:1009B000104B00229A600F4B1B680E4A23F0847381
:1009C00023F4803313600B4B0B4A5A60094B1B68AE
:1009D000084A23F480231360064B0022DA6000F0FB
:1009E00089F8034B4FF000629A6000BF80BD00BFE2
:1009F00000ED00E0003802401030002480B487B0E1
:100A000000AF00233B6100237B610223FB600023D6
:100A1000BB6002237B60324B9B6803F00C033B619D
:100A20003B69042B07D0082B09D0002B3DD12D4B5F
:100A30002D4A1A603DE02B4B2C4A1A6039E0284BB6
:100A40005B689B0D03F00103BB60254B5B6803F003
:100A50003F037B60BB68002B0CD0244A7B68B2FB51
:100A6000F3F31F4A52689209C2F3080202FB03F330
:100A70007B610BE01C4A7B68B2FBF3F3184A5268B7
:100A80009209C2F3080202FB03F37B61144B5B681B
:100A90001B0C03F0030301335B00FB607A69FB6806
:100AA000B2FBF3F30F4A136003E00E4B0E4A1A60D9
:100AB00000BF0B4B9B681B0903F00F030C4AD35C70
:100AC000DBB23B61074B1A683B6922FA03F3054A24
:100AD000136000BF1C37BD465DF8047B704700BF44
:100AE000003802402C0000200024F40040787D01F2
:100AF0003000002080B400AF224B1B6C214A43F031
:100B000080531364204B1B681F4A43F44043136017
:100B10001C4B1C4A9B6893601A4B1A4A9B68936053
:100B2000184B9B68174A43F480539360154B174A40
:100B30005A60144B1B68134A43F08073136000BF64
:100B4000104B1B6803F00073002BF9D0104B40F2E0
:100B500002621A600B4B9B680A4A23F003039360FE
:100B6000084B9B68074A43F00203936000BF054BA4
:100B70009B6803F00C03082BF9D100BFBD465DF85C
:100B8000047B704700380240007000401054010898
:100B9000003C024080B500AF1549002005F096F8F2
:100BA0001449012005F092F81349022005F08EF84F
:100BB0001249032005F08AF80121002005F068F8A9
:100BC0000121012005F064F80121022005F060F800
:100BD0000121032005F05CF80121042005F058F8FC
:100BE0000121052005F054F804F0F4FF00BF80BD9A
:100BF000010C0008350C00087D0C0008DB0C000817
:100C000080B584B000AF03460A46FB711346BB8033
:100C1000BB88002B03D1FB790633FB7302E0FB7921
:100C20000C33FB73FB7B184600F0F6FB00BF10375C
:100C3000BD4680BD80B584B000AF03460A46FB7157
:100C40001346BB80BB88012B02D1FB79FB730CE000
:100C5000BB88022B03D1FB791233FB7305E0BB8801
:100C6000052B07D1FB791833FB73FB7B184600F08B
:100C7000D3FB00E000BF1037BD4680BD80B584B017
:100C800000AF03460A46FB711346BB80BB88B3F531
:100C9000FA6F03D1FB793033FB7315E0BB88B3F5F2
:100CA0007A7F03D1FB792A33FB730DE0BB88B3F560
:100CB000167F03D1FB792433FB7305E0BB88C82B77
:100CC00007D1FB791E33FB73FB7B184600F0A4FBB6
:100CD00000E000BF1037BD4680BD80B584B000AFD6
:100CE00003460A46FB711346BB80BB88B3F5FA6F17
:100CF00003D3FB794833FB7315E0BB88B3F57A7FE8
:100D000003D3FB794233FB730DE0BB88B3F5167F49
:100D100003D3FB793C33FB7305E0BB88C72B07D9B2
:100D2000FB793633FB73FB7B184600F075FB00E064
:100D300000BF1037BD4680BD80B500AF41F288329C
:100D40002021002000F0BAF8044B93E8030000F0E3
:100D5000DDF8034B01221A7000BF80BDC473000888
:100D60008802002080B582B000AF7860114BFF226E
:100D70001A70114B1B6804330F4A13600E4B1B682B
:100D80001B88002B08D10C4B1B685B88002B03D100
:100D9000002000F003F909E0074B1B681A88064B96
:100DA0001B685B881946104600F008F800BF08373A
:100DB000BD4680BD400000208C02002080B586B07A
:100DC00002AF03460A46FB801346BB80FB88002B1C
:100DD00003D1002000F0E2F817E0FB884FF6FF7225
:100DE000934207D141F2883000F0F6F8652000F018
:100DF000D5F80AE0FB88134A92FBF3F3FB60F8682E
:100E000000F0EAF8052000F0C9F80F4B1B78FF2B23
:100E100007D00D4B1B78184600F000FC0A4BFF2250
:100E20001A70B98800230093084B0022084800F08C
:100E300093FB03461A46044B1A7000BF1037BD4699
:100E400080BD00BFB0710B0040000020650D0008A0
:100E50009073000880B582B000AF78600A4B1B78B1
:100E6000002B0DD0094A7B681360084B1B681A8859
:100E7000064B1B685B8819461046FFF79FFF00E092
:100E800000BF0837BD4680BD880200208C020020CC
:100E900080B586B002AF0346FB71FB793B7307F167
:100EA0000C0201230093134601220421002001F0CB
:100EB000FDF800BF1037BD4680BD000080B588B08A
:100EC00000AF0346B9607A60FB730121022004F091
:100ED0006FF9BB689BB2013B9BB2BB827B68013B55
:100EE000BB610023BB830023FB8207F11403194677
:100EF000054804F0BDF90121034804F025FA00BFBC
:100F00002037BD4680BD00BF0004004080B58AB0D8
:100F100000AF3B4683E803000121042004F028F9D8
:100F20004FF400733B62022387F82530022387F8D1
:100F30002430002387F82630012387F8273007F173
:100F400020031946134803F061FD022209211148CC
:100F500003F03AFE6023BB810123FB8104233B8223
:100F600000233B8308237B834FF48073BB830023E0
:100F7000FB8300237B6107F10C031946064804F04C
:100F80008BFB0121044804F027FC00BF2837BD4635
:100F900080BD00BF000802400004004080B584B05E
:100FA00000AF0346FB710A4BDB6AFB60FB79FA6812
:100FB00002FB03F3074AA2FB03235B09BB60B9688A
:100FC000034804F0FBFB00BF1037BD4680BD00BFE7
:100FD000000400401F85EB5180B483B000AF7860FF
:100FE000044A7B68013BD36200BF0C37BD465DF805
:100FF000047B70470004004080B500AF00F030F97A
:1010000000F078F900BF80BD80B584B000AF034622
:10101000FB710B46BB7113467B71FB79022B5ED8CB
:10102000BB79002B05D0BB79012B02D0BB79022BF9
:1010300055D17B79642B52D87B79002B03D12A4B75
:1010400064221A7002E0284A7B7913707B79274A60
:1010500012682749A1FB0212920B023A02FB03F32A
:10106000244AA2FB03235B09FB60FB79002B0CD114
:101070007B79002B04D020211F4803F06FFD2FE067
:1010800020211D4803F079FD2AE0FB79012B14D1C2
:10109000BB79002B04D1F968184804F065FB1FE008
:1010A000BB79012B04D1F968144804F087FB17E0E1
:1010B000F968124804F074FB12E0BB79002B05D1EB
:1010C000F9684FF0804004F05DFB09E0BB79012B2B
:1010D00006D1F9684FF0804004F046FB00E000BF05
:1010E0001037BD4680BD00BF900200202C000020BC
:1010F0000D3AB8EE1F85EB510000024000000140A0
:1011000080B582B000AF0346FB710B46BB7113463E
:101110007B71BB79052B00F2818001A252F823F08C
:10112000391100085F11000885110008AB11000893
:10113000F7110008D11100087A79FB7900211846CF
:10114000FFF762FFFB79002202211846FFF75CFFE0
:10115000FB79002201211846FFF756FF5FE07A79FC
:10116000FB7901211846FFF74FFFFB790022002190
:101170001846FFF749FFFB79002202211846FFF7C6
:1011800043FF4CE07A79FB7902211846FFF73CFFD8
:10119000FB79002200211846FFF736FFFB79002279
:1011A00001211846FFF730FF39E07A79FB790221F7
:1011B0001846FFF729FF7A79FB7900211846FFF7D7
:1011C00023FF7A79FB7901211846FFF71DFF26E0FE
:1011D000FB79002202211846FFF716FF7A79FB7986
:1011E00000211846FFF710FF7A79FB790121184694
:1011F000FFF70AFF13E0FB79002202211846FFF7F0
:1012000003FFFB79002200211846FFF7FDFEFB7962
:10121000002201211846FFF7F7FE00E000BF00BFE3
:101220000837BD4680BD00BF80B584B000AF03461F
:101230000A46FB711346BB710023FB7308E0BA79C1
:10124000F979FB7B1846FFF75BFFFB7B0133FB73F0
:10125000FB7B022BF3D900BF1037BD4680BD0000D9
:1012600080B582B000AF0121032003F081FF40F67A
:1012700003433B6002233B7103237B710023BB715B
:101280000123FB713B461946184803F0BFFB0122BE
:101290000021164803F098FC01220121134803F0B5
:1012A00093FC01220B21114803F08EFC01220A213C
:1012B0000E4803F089FC4FF400533B603B4619464F
:1012C0000B4803F0A3FB01220D21094803F07CFC2D
:1012D00020233B6001233B713B461946034803F042
:1012E00095FB00BF0837BD4680BD00BF000002402F
:1012F0000004024080B58AB000AF0023FB840023C5
:10130000FB840121012003F073FF0121012003F080
:101310004FFF00233B8300237B832E4B1B682E4A09
:10132000A2FB03239B0B013BFB6100233B840023B7
:1013300087F8223007F118031946284803F098FF70
:1013400007F1180319464FF0804003F091FF702316
:10135000BB800123FB8004233B81FB8CFB600223C9
:101360003B8200237B824FF48073BB820023FB828D
:101370003B1D1946194804F007F83B1D194617484C
:1013800004F004F93B1D1946144804F085F93B1D8F
:1013900019464FF0804003F0F7FF3B1D19464FF010
:1013A000804004F06BF801210C4803F0CDFF0121CF
:1013B0004FF0804003F0C8FF0121084804F00CFA08
:1013C00001214FF0804004F007FA00BF2837BD46E6
:1013D00080BD00BF2C0000200D3AB8EE0000014097
:1013E00080B582B000AF78607B68002B09D0074AD7
:1013F0007B6813604FF4807301220549054802F0B1
:1014000007FE00BF0837BD4680BD00BF9402002024
:10141000980300209802002080B582B000AF0346F8
:10142000FB71FB1D1946064802F058FE0346002BCF
:1014300001D1012300E0002318460837BD4680BDD6
:101440009803002080B582B000AF0A4B1B68002BC8
:101450000CD0FB1D1946084802F08EFE0346002BF7
:1014600004D1044B1B68FA791046984700BF08372F
:10147000BD4680BD940200209803002080B483B054
:1014800000AF03463960FB7197F90730002B0BDA88
:101490003B68DAB20C49FB7903F00F03043B1201FD
:1014A000D2B20B441A7609E03B68DAB2074997F9E1
:1014B00007301201D2B20B4483F8002300BF0C376F
:1014C000BD465DF8047B704700ED00E000E100E000
:1014D00080B582B000AF78607B68013BB3F1807F5C
:1014E00001D301230FE00A4A7B68013B53600F21BF
:1014F0004FF0FF30FFF7C2FF054B00229A60044B0C
:1015000007221A60002318460837BD4680BD00BF79
:1015100010E000E080B584B000AF3B46184603F011
:101520007FFD3B680A4AA2FB03239B091846FFF78D
:10153000CFFF01214FF0FF30FFF7A0FF4FF4C07243
:101540000021044802F05AFE00BF1037BD4680BD9E
:10155000D34D6210A803002090B587B000AFF860AB
:10156000B9603B601346FB710023FB754CE0FA7DCC
:10157000294913465B001344DB000B4410331B68FE
:10158000002B3ED1FA7D244913465B001344DB0057
:101590000B44FA681A60FA7D1F4913465B00134436
:1015A000DB000B4410333A681A60FA7D1A4913467F
:1015B0005B001344DB000B440C33FA791A70FA7D9C
:1015C000154913465B001344DB000B441433BA6A1D
:1015D0001A60FC7D00F072F801460F4A23465B005A
:1015E0002344DB00134404331960FA7D0A4913468F
:1015F0005B001344DB000B440833BA681A60FB7DC0
:1016000006E0FB7D0133FB75FB7D0F2BAFD9FF237C
:1016100018461C37BD4690BDA803002080B483B097
:1016200000AF0346FB71FB790F2B0AD8FA792249E8
:1016300013465B001344DB000B4410331B68002B84
:1016400001D1002331E0FA791B4913465B001344B2
:10165000DB000B4400221A60FA79174913465B003D
:101660001344DB000B44103300221A60FA7912494C
:1016700013465B001344DB000B440C3300221A704A
:10168000FA790D4913465B001344DB000B44083321
:1016900000221A60FA79084913465B001344DB0004
:1016A0000B44043300221A60012318460C37BD4650
:1016B0005DF8047B704700BFA803002080B400AF32
:1016C000034B1B681846BD465DF8047B704700BF9E
:1016D0002805002080B584B000AF0023FB7368E0CC
:1016E000FA7B374913465B001344DB000B4410338D
:1016F0001B68002B5AD0FB7B184600F063F80346AA
:10170000002B53D0FA7B2E4913465B001344DB00B9
:101710000B4410331B68BB60FA7B294913465B00FE
:101720001344DB000B4414331B687B60FA7B2449B1
:1017300013465B001344DB000B440C331B78DBB215
:10174000FF2B20D0FA7B1E4913465B001344DB00BD
:101750000B440C331B78DBB2002B14D0FA7B1849F6
:1017600013465B001344DB000B440C331B78DBB2E5
:10177000013BD8B2124913465B001344DB000B4413
:101780000C3302461A70FA7B0D4913465B00134472
:10179000DB000B440C331B78DBB2002B03D1FB7B4B
:1017A0001846FFF73BFFBB6878689847FB7B01331F
:1017B000FB73FB7B0F2B93D900BF1037BD4680BD59
:1017C000A803002080B584B000AF0346FB7100235E
:1017D000FB6072B6FFF772FFB860FB790F2B0AD877
:1017E000FA792A4913465B001344DB000B4410339B
:1017F0001B68002B02D162B6002342E0FA7923492C
:1018000013465B001344DB000B4404331B68BA68C7
:101810009A420CD3FA791D4913465B001344DB004E
:101820000B4404331B68BA68D31AFB600EE0FA79E4
:10183000164913465B001344DB000B4404331A685B
:10184000BB68D31AFB60FB68DB43FB60FA790F4986
:1018500013465B001344DB000B4408331B68FA6833
:101860009A4202D262B600230BE0FA790749134686
:101870005B001344DB000B440433BA681A6062B6A1
:10188000012318461037BD4680BD00BFA8030020C5
:1018900080B400AF044B1B680133034A136000BFE0
:1018A000BD465DF8047B70472805002080B59EB0DA
:1018B00000AF0346FB7101214FF4807003F098FCE8
:1018C0000121042003F054FC01214FF4800003F0B7
:1018D0004FFC2023BB64032387F84C30002387F898
:1018E0004F3007F148031946434803F08FF802F0E0
:1018F00015FD0023BB660023FB6600233B67002326
:101900007B6707F16803184602F06CFD00233B6516
:10191000002387F85430012387F855300023BB6536
:101920000023FB6500233B66012387F8643007F141
:1019300050031946314802F0FFFCFB79012B10D10E
:1019400001212E4802F06CFE00212C4802F084FE9A
:1019500001212A4802F09CFE0121284802F0BAFE2B
:1019600036E0274802F00AFF0023FB60254B3B616D
:10197000254B7B610023BB610123FB6100233B629C
:1019800000237B624FF40063BB624FF40053FB62A1
:101990004FF480733B634FF400337B630023BB63DE
:1019A0000123FB6300233B6400237B6407F10C03EA
:1019B0001946134802F0B6FF0121114803F00AF856
:1019C00001210E4802F0BEFE01210C4802F09EFEED
:1019D000012301220F21094802F048FD0121074897
:1019E00002F028FDFB79002B02D1044802F008FE2A
:1019F00000BF7837BD4680BD00080240002001408E
:101A0000106402404C2001402C05002080B400AF3F
:101A1000034B1B889BB21846BD465DF8047B70479C
:101A20002C05002080B500AF00F0C0F800BF80BDDD
:101A300080B586B002AF3B1D00210A461A800A46D7
:101A40009A700023FB73174B1B883B80164B1B7847
:101A50009BB23A1D394600930323402000F0F0F872
:101A60003B1D0221184600F05DF80346FB73BB796D
:101A7000FA7B9A4201D000230FE03B791B027A796E
:101A80001344BB60BB6844F2A44202FB03F31B0C8B
:101A9000A3F592530D3BBB60BB6818461037BD469B
:101AA00080BD00BFA87300084C00002080B586B040
:101AB00002AF3B1D00210A461A800A469A70002395
:101AC000FB73164B1B883B80154B1B789BB23A1D52
:101AD000394600930323402000F0B2F83B1D022159
:101AE000184600F01FF80346FB73BB79FA7B9A4255
:101AF00001D000230EE03B791B027A791344BB60CE
:101B0000BB6843F2D40202FB03F31B0CA3F516736C
:101B1000BB60BB6818461037BD4680BDAC7300087B
:101B20004D00002080B485B000AF78600B46FB709C
:101B30000023BB730023BB817B68BB600023BB73A6
:101B400025E0BB681B781B021AB2B7F90C30534072
:101B50001BB2BB810023FB7310E0B7F90C30002BE4
:101B600006DABB8983F4CE4383F07F03DB43BB817A
:101B7000BB895B00BB81FB7B0133FB73FB7B072BCA
:101B8000EBD9BB7B0133BB73BB680133BB60BA7B52
:101B9000FB789A42D5D3BB891B0A9BB2DBB21846AD
:101BA0001437BD465DF8047B7047000080B586B0F1
:101BB00000AF01214FF4001003F0FAFA1D4BBB6097
:101BC0000023BB814BF6FF73FB8100233B824FF464
:101BD00080637B824FF48043BB8207F10803194680
:101BE000154803F03BF80121134803F0F9F80121EF
:101BF000022003F0BDFA4FF440733B6002233B71B7
:101C000002237B710123BB710023FB713B46194604
:101C10000A4802F0FBFE04220821084802F0D4FF23
:101C200004220921054802F0CFFF00BF1837BD4646
:101C300080BD00BF801A060000540040000402402E
:101C400090B587B000AFB9607A601A460346FB735F
:101C50001346BB73BB681B787B7500F047F8FB7BB2
:101C60005B00DBB20021184600F068F80123FB7529
:101C700009E0FB7DBA6813441B78184600F08EF823
:101C8000FB7D0133FB75FA7D7B7D9A42F1D300F039
:101C90004BF800F02BF8FB7B5B00DBB20121184610
:101CA00000F04CF80023BB7516E0BA7DBB7B013B0E
:101CB0009A4207D1BB7D7A68D41800F0A1F8034698
:101CC000237006E0BB7D7A68D41800F081F80346E3
:101CD0002370BB7D0133BB75BA7DBB7B9A42E4D3D5
:101CE00000F022F800BF1C37BD4690BD80B500AFA4
:101CF00000BF4FF400310A4803F05EF90346002BA1
:101D0000F7D10121064803F08BF800BF05490448CC
:101D100003F022F90346002BF8D000BF80BD00BFBE
:101D2000005400400100030080B500AF01210248CB
:101D300003F096F800BF80BD0054004080B582B02B
:101D400000AF03460A46FB711346BB71BA79FB79B3
:101D500019460F4803F0A4F8BB79002B08D100BF47
:101D60000C490B4803F0F8F80346002BF8D00AE0C2
:101D7000BB79012B07D100BF0749054803F0ECF8F8
:101D80000346002BF8D000BF0837BD4680BD00BF1A
:101D900000540040820007000200030080B582B0BA
:101DA00000AF0346FB71FB791946074803F0B6F80C
:101DB00000BF0649044803F0CFF80346002BF8D0D3
:101DC00000BF0837BD4680BD0054004084000700B6
:101DD00080B500AF0121084803F080F800BF074933
:101DE000054803F0B9F80346002BF8D0024803F089
:101DF000A5F80346184680BD00540040400003008B
:101E000080B500AF0021084803F068F800BF07491B
:101E1000054803F0A1F80346002BF8D0024803F070
:101E20008DF80346184680BD005400404000030072
:101E300080B582B000AF7860FFF740FC02467B6857
:101E40001A6000BF0837BD4680BD80B582B000AFC4
:101E50007860FFF733FC02467B68D31A18460837D0
:101E6000BD4680BD80B500AF4FF4807301220A49A2
:101E70000A4802F0CDF80849002000F0FDF90023DF
:101E800000224FF46141002000F00AFA044B0022C6
:101E90001A7000BF80BD00BF5C0500206C050020EB
:101EA0002E05002080B483B000AF7860044A7B68C0
:101EB000136000BF0C37BD465DF8047B704700BF60
:101EC0007406002080B582B000AF0023FB7170E083
:101ED000BB1D1946494802F04FF9494B1B78012BAD
:101EE00028D0022B54D0002B5FD1BB79B12B0FD15E
:101EF000444B00221A70444B01221A70434BFF22BC
:101F00001A703F4B01221A704148FFF791FF50E0D1
:101F1000BB79062B02D10223FB714AE0BB79152B5A
:101F200002D10323FB7144E0374B00221A700423D3
:101F3000FB713EE0334B1B781D2B20D8314B1B78B7
:101F40001A46B979334B99542E4B1B78002B06D087
:101F50002E4B1A78BB795340DAB22C4B1A70294BAE
:101F60001B780133DAB2274B1A70264B1A78294BAB
:101F70001B789A4208D1224B02221A7004E0204BAF
:101F800000221A700423FB712148FFF751FF10E073
:101F9000BA791E4B1B789A4202D10123FB7101E0F2
:101FA0000423FB71184B00221A70154B00221A7083
:101FB00000BF124802F047F80346002B02D0FB791D
:101FC000002B85D0FB79002B13D10F4B1B78002BF6
:101FD0000FD00F4B1B681846FFF737FF0346132B34
:101FE00007D9094B00221A70054B00221A700523ED
:101FF000FB71FB7918460837BD4680BD5C050020A3
:102000002E0500202F050020380500203005002077
:10201000340500203C05002080B400AF00BFBD4661
:102020005DF8047B704780B400AF00BFBD465DF82B
:10203000047B704780B582B000AFFFF743FF0346D3
:10204000FB71FB79002B23D0FB79013B042B21D8BA
:1020500001A252F823F000BF792000086D2000088B
:10206000732000088B2000088B200008FFF7D4FFA6
:1020700013E0FFF7D8FF10E00A4B1B68002B0BD0D2
:10208000084B1B680848984706E0FFF7CCFF04E0C0
:1020900000BF02E000BF00E000BF00BF0837BD4640
:1020A00080BD00BF740600203E05002080B590B0C2
:1020B00000AF3B600346FB710B46BB7113467B715F
:1020C000002387F83F3097F83F305A1C87F83F20AD
:1020D00007F140021344B12203F8382C97F83F303F
:1020E0005A1C87F83F20194697F848300533DAB272
:1020F00007F140030B4403F8382C97F83F305A1C83
:1021000087F83F2007F140021344FA7903F8382C8E
:1021100097F83F305A1C87F83F2007F140021344DC
:10212000BA7903F8382C97F83F305A1C87F83F20CB
:1021300007F1400213447A7903F8382C002387F81A
:102140003E3013E097F83E303A681A4497F83F3033
:10215000591C87F83F10127807F140010B4403F82F
:10216000382C97F83E30013387F83E3097F83E2000
:1021700097F848309A42E5D32C4B1B785A1CD1B2C1
:102180002A4A117097F83F20511C87F83F1007F139
:1021900040010A4402F8383C97F83F30023BDAB27B
:1021A00007F1080302331146184600F043F80346CE
:1021B00087F83C3097F83F305A1C87F83F2007F1EA
:1021C0004002134497F83C2003F8382C002387F88A
:1021D0003D3020E000BF8021154803F067FC034636
:1021E000002BF8D097F83D3007F14002134413F864
:1021F000383C9BB219460E4803F0EEFB00BF40216D
:102200000B4803F053FC0346002BF8D097F83D3001
:10221000013387F83D3097F83D2097F83F309A42D8
:10222000D8D300BF4037BD4680BD00BF7806002030
:102230000044004080B485B000AF78600B46FB706E
:10224000FF23FB730023BB730AE07B681A78FB7BD8
:102250005340FB737B6801337B60BB7B0133BB73F3
:10226000BA7BFB789A42F0D3FB7B18461437BD4605
:102270005DF8047B7047000080B483B000AF034674
:102280003960FB71FB7905493A6841F8232000BFAA
:102290000C37BD465DF8047B704700BF6C0600201C
:1022A00080B58AB000AF396011461A460346FB710B
:1022B0000B46BB7113467B710121012002F058FFD0
:1022C000022387F82430032387F82530002387F87A
:1022D0002630012387F8273004233B6207F12003CF
:1022E0001946284802F092FB08233B6207F12003BD
:1022F0001946244802F08AFB07220221214802F0F5
:1023000063FC072203211F4802F05EFC01214FF409
:10231000003002F04DFF3B683B610023BB8200238D
:10232000FB8200233B830023BB830C237B8307F1C9
:1023300010031946144803F075FA012240F22551A2
:10234000114803F06BFB002240F227710E4803F0A6
:1023500065FB4FF4A06001F06BFF26233B73002365
:102360007B730023BB730123FB7307F10C03184637
:1023700001F072FF0121044803F00EFB00BF283773
:10238000BD4680BD000002400044004080B582B0E0
:1023900000AF72B640F225510E4803F0A3FB03468E
:1023A000012B12D10C4B1B687B600A4803F026FB03
:1023B0000346DBB2FB70FB1C1946786801F08EFE09
:1023C00040F22551034803F0E8FB62B600BF08372E
:1023D000BD4680BD004400406C06002080B500AFC3
:1023E0000348FFF75FFDFFF73DFD00BF80BD00BF65
:1023F0007524000880B483B000AF7860044A7B681D
:10240000136000BF0C37BD465DF8047B704700BF0A
:102410008406002080B483B000AF7860044A7B68F3
:10242000136000BF0C37BD465DF8047B704700BFEA
:102430007C06002080B483B000AF7860044A7B68DB
:10244000136000BF0C37BD465DF8047B704700BFCA
:102450008006002080B483B000AF7860044A7B68B7
:10246000136000BF0C37BD465DF8047B704700BFAA
:102470008806002080B584B000AF78607B68FB6080
:10248000FB681B78042B0DD0042B02DC012B05D03C
:1024900014E0822B0AD0872B0CD00FE0F86800F0F4
:1024A0003BF80EE0F86800F06BF80AE0F86800F01E
:1024B0009DF806E0F86800F0D9F802E0FFF7B3FDF8
:1024C00000BF00BF1037BD4680BD0000B0B584B06E
:1024D00002AF78607B689B78032B02D9FFF7A3FDDE
:1024E00014E0FFF799FD0B4B1B68002B0ED0094B36
:1024F0001C687B6898787B68D9787B681A797B68D8
:102500005D797B689B7900932B46A0470837BD46D1
:10251000B0BD00BF8406002080B582B000AF7860F7
:102520007B685B78022B03D17868FFF7CFFF02E06E
:10253000FFF779FD00BF00BF0837BD4680BD000032
:1025400080B582B000AF78607B689B78642B06D939
:102550007B689B78FF2B02D0FFF765FD0BE0FFF750
:102560005BFD064B1B68002B05D0044B1B687A688B
:102570009278104698470837BD4680BD80060020F7
:1025800080B582B000AF78607B685B78022B03D1A6
:102590007868FFF7D5FF02E0FFF745FD00BF00BFF9
:1025A0000837BD4680BD000080B582B000AF7860BE
:1025B0007B689B78052B03D87B68DB78052B02D9D9
:1025C000FFF731FD0DE0FFF727FD074B1B68002BE0
:1025D00007D0054B1B687A6890787A68D2781146E4
:1025E00098470837BD4680BD7C06002080B582B084
:1025F00000AF78607B685B78022B03D17868FFF7C7
:10260000D3FF02E0FFF70FFD00BF00BF0837BD4654
:1026100080BD000080B584B000AF78600023FB73FC
:10262000142200210F4801F0E9FD09E0FA7BFB7B51
:1026300079680A4491780B4AD154FB7B0133FB73D0
:10264000FB7B7A6813449B780D2BEFD1064B1B68FC
:10265000002B03D0044B1B680248984700BF10377B
:10266000BD4680BD8C0600208806002080B582B063
:1026700000AF78607B685B78022B03D17868FFF746
:10268000C9FF02E0FFF7CFFC00BF00BF0837BD461F
:1026900080BD80B483B000AF786000BF0C37BD460A
:1026A0005DF8047B7047000080B582B000AF012167
:1026B000072002F05DFD01233B7103237B710023A2
:1026C000BB710023FB714FF468733B603B461946B6
:1026D0000A4802F09BF94FF488633B603B46194679
:1026E000074802F093F980233B603B4619460548B2
:1026F00002F08CF900BF0837BD4680BD00000240E3
:10270000000402400008024080B584B000AF786049
:102710000B46FB700823FB7397F90330002B05DA97
:1027200001228021144802F037FA04E000228021BF
:10273000114802F031FA0120FFF7ABFF01222021FE
:102740000D4802F029FA0120FFF7A3FFFB7B013BB4
:10275000FB7300222021084802F01EFA0120FFF737
:1027600098FFFB785B00FB70FB7B002BD4D100BF94
:102770001037BD4680BD00BF0000024080B584B068
:1027800000AFF8607B600B467B8113463B81B7F955
:102790000A300A3B0B2B00F2DC8001A252F823F036
:1027A000D127000853290008232800082D280008F5
:1027B0003D2800084D2800085F2800087F280008F1
:1027C000A7280008DD280008FB2800084B2900087E
:1027D000FFF76AFF01228021604802F0DDF9012243
:1027E00040215F4802F0D8F9012280215D4802F0C3
:1027F000D3F901224FF40071584802F0CDF90022BC
:102800002021564802F0C8F901224FF48061544853
:1028100002F0C2F901224FF48071504802F0BCF975
:1028200097E03B891846FFF734FF92E03B89DBB223
:102830001A4680214B4802F0AFF98AE03B89DBB2AF
:102840001A464021464802F0A7F982E03B89DBB2F4
:102850001A464FF40071414802F09EF979E03B8935
:10286000DBB21946F868FFF74FFF72E07B681B7810
:102870001946F868FFF748FF3B89013B3B813B89DC
:10288000002BF3D165E07B681B781946F868FFF7E9
:102890003BFF7B6801331B781946F868FFF734FF6C
:1028A0003B89013B3B813B89002BECD151E07B68AC
:1028B0001B781946F868FFF727FF7B6801331B7800
:1028C0001946F868FFF720FF7B6802331B7819462A
:1028D000F868FFF719FF3B89013B3B813B89002BDF
:1028E000E5D136E07B685A1C7A601B781946F86897
:1028F000FFF70AFF3B89013B3B813B89002BF1D16C
:1029000027E07B681B78002B10D07B681B78012B9D
:1029100006D100224FF40071104802F03DF905E0A5
:1029200001224FF400710D4802F036F97B68013343
:102930007B607B681B781946F868FFF7E5FE7B68CB
:1029400001337B603B89013B3B813B89002BD8D124
:1029500000BF012318461037BD4680BD000002406D
:10296000000402400008024080B582B000AF7860E9
:102970000B46FB70074B084A0849786801F0A2F93A
:10298000FB781946786800F086FF00BF0837BD461F
:1029900080BD00BF7D270008D52F0008FD3000084E
:1029A00080B584B000AFF860084611461A46034669
:1029B0007B810B463B811346FB8014E0B7F9063060
:1029C000B7F90820B7F90A10F86801F0EDF9B7F97E
:1029D00018309BB2013B9BB23B83B7F908309BB2E6
:1029E00001339BB23B81B7F91830002BE6DC00BF06
:1029F0001037BD4680BD80B584B002AF786000233B
:102A00000093002300220021786801F0ECF9786837
:102A100000F03BFB7B68B3F902207B68B3F904301C
:102A200000931346002200217868FFF7B9FFFF23C7
:102A30000093FF23FF220021786801F0D4F900BF42
:102A40000837BD4680BD80B483B000AF78600846CB
:102A500011461A460346FB700B46BB7013463B807B
:102A60007B68FA785A70BB789AB2FB789BB2D31A1B
:102A70009BB21AB27B689A803B88013B9BB21AB228
:102A80007B681A817B6801225A807B68B3F9043025
:102A90001A467B68B3F9083092FBF3F31AB27B68ED
:102AA000DA807B68B3F90430002B0CDA7B68B3F969
:102AB00004309BB25B429BB21AB27B689A807B68FF
:102AC0004FF6FF725A807B68B3F904307A68B2F926
:102AD000082093FBF2F102FB01F29B1A1AB27B6809
:102AE0005A817B68B3F90830DA0F13445B101AB2CD
:102AF0007B689A817B68FA781A7000BF0C37BD46F4
:102B00005DF8047B704780B483B000AF78607B6869
:102B10001A787B68B3F90630DBB21344DAB27B680B
:102B20001A707B68B3F90C309AB27B68B3F90A303B
:102B30009BB213449BB21AB27B689A817B68B3F94B
:102B40000C207B68B3F908309A4216DB7B681A7850
:102B50007B68B3F90230DBB21344DAB27B681A70D7
:102B60007B68B3F90C309AB27B68B3F908309BB23A
:102B7000D31A9BB21AB27B689A8100BF0C37BD464C
:102B80005DF8047B704780B485B000AF78600B4679
:102B90007B807B68B3F90630DAB27B681A707B6899
:102BA0001A787B88DBB212FB03F3DAB27B681A7007
:102BB0007B68B3F90A309AB27B8812FB03F39AB2AE
:102BC0007B68B3F90830D90F0B445B101BB29BB282
:102BD00013449BB2FB817B68B3F90230002B0EDB00
:102BE0007B681A78B7F90E307968B1F9081093FB51
:102BF000F1F3DBB21344DAB27B681A700DE07B6844
:102C00001A78B7F90E307968B1F9081093FBF1F32F
:102C1000DBB2D31ADAB27B681A70B7F90E307A6871
:102C2000B2F9082093FBF2F102FB01F29B1A1AB2EF
:102C30007B689A817B681A787B685B781344DAB288
:102C40007B681A7000BF1437BD465DF8047B70477F
:102C500080B584B000AFF8600B467A607B81B7F92D
:102C60000A300C2B0AD0172B0FD1FB68DB68B7F9A1
:102C70000A107A68F8689847034607E0FB687A68A4
:102C800070331068516803C300BF01231846103722
:102C9000BD4680BD80B485B000AFF8600B467A6059
:102CA0007B81012318461437BD465DF8047B7047CD
:102CB00090B585B000AF7860786803F013FA0346EA
:102CC000002B53D07B68B3F92E30012B08D0022B98
:102CD0000BD0002B1BD12849786803F031FD28E088
:102CE0002649786803F02CFD23E07B689B8CFB81F0
:102CF000FB89C3F17F039BB21AB27B689A84204997
:102D0000786803F01DFD7B68FA899A8411E07B687E
:102D1000DB8CFB81FB89C3F17F039BB21AB27B681A
:102D2000DA841849786803F00BFD7B68FA89DA8445
:102D300000BF7B6893F828303B727B6893F829309A
:102D40007B727B6893F82A30BB727B68DC697B6896
:102D5000B3F92C309AB207F1080313217868A04721
:102D60000121786803F038FC012300E000231846B5
:102D70001437BD4690BD00BFEC7300080C7400080A
:102D8000307400085474000890B587B000AF7860C4
:102D90000023FB751AE07B6803F14601FA7D1346B8
:102DA000DB009B1A5B00C818FB7D7A68134493F81C
:102DB0003A10FB7D7A68134493F83D207B68B3F9A1
:102DC0002C30FFF740FEFB7D0133FB75FB7D022BB2
:102DD000E1D9786803F006FB0346002B71D07B68CD
:102DE000B3F92E30012B08D0022B0BD0002B1BD1B6
:102DF0003649786803F0A4FC28E03549786803F088
:102E00009FFC23E07B689B8C7B827B8AC3F17F03E2
:102E10009BB21AB27B689A842E49786803F090FCC2
:102E20007B687A8A9A8411E07B68DB8C7B827B8A60
:102E3000C3F17F039BB21AB27B68DA8426497868B3
:102E400003F07EFC7B687A8ADA8400BF0023BB82B1
:102E50002AE07B6893F846303B737B6893F85430E4
:102E60007B737B6893F86230BB737B68DC6907F126
:102E70000C03012213217868A0477B68463318466B
:102E8000FFF741FE7B6846330E331846FFF73BFEE3
:102E90007B6846331C331846FFF735FEB7F914300C
:102EA0009BB201339BB2BB827B68B3F92C30B7F97C
:102EB00014209A42CDDB0121786803F08DFB0123B9
:102EC00000E0002318461C37BD4690BDEC73000897
:102ED0000C740008307400085474000890B587B072
:102EE00000AFF8600B467A607B81B7F90A300A3B85
:102EF0000B2B5FD801A252F823F000BF2D2F000842
:102F0000472F0008B52F0008B52F0008B52F00087F
:102F1000532F0008B52F0008B52F0008B52F000863
:102F2000B52F0008632F0008AB2F0008FB680222B2
:102F30001A84FB6801225A8442226421F86803F053
:102F40009AFA03463EE02149F86803F0F9FB0123B1
:102F500038E07B6880221A807B6880225A800123B7
:102F600030E0F86803F0A4F80346002B1BD01849A2
:102F7000F86803F0E5FBFB6893F828303B75FB68C5
:102F800093F829307B75FB6893F82A30BB75FB6892
:102F9000DC6907F1140301221321F868A04701211D
:102FA000F86803F019FB01230CE0F868FFF780FED6
:102FB000012307E0B7F90A307A681946F868FFF785
:102FC00047FE034618461C37BD4690BD787400087E
:102FD000CC73000880B584B000AFF8600B467A600F
:102FE0007B81B7F90A30172B03D1F868FFF7CCFEC5
:102FF00000BF012318461037BD4680BD80B582B0A2
:1030000000AF78607B681B7803F00103DBB2002B14
:103010000AD07B689B6800220B21786898477A6801
:1030200013786FF30003137000BF0837BD4680BDEF
:1030300080B584B000AF78607868FFF7DFFF7B6809
:103040009B6800220A21786898470346FB81B7F9FC
:103050000E30002B04D07A68137843F0010313700C
:10306000B7F90E3018461037BD4680BD80B582B026
:1030700000AF786039607B689B683A680C2178689B
:10308000984700BF0837BD4680BD80B584B000AF0B
:1030900078607A6807F10C03023210681860002328
:1030A0003B8100237B8107F1080319467868FFF70D
:1030B000DDFF00BF1037BD4680BD80B582B000AFD8
:1030C00078607B689B687A6802320F21786898473D
:1030D0007868FFF7DAFF00BF0837BD4680BD80B5CE
:1030E00082B000AF78607B689B687A6824321521D3
:1030F0007868984700BF0837BD4680BD80B584B06A
:1031000000AFF8600B467A607B81B7F90A300B2B71
:1031100015D00F2B1CD00A2B22D1B7F90A307A68B0
:103120001946F868FFF7DAFE0346002B01D10023A9
:103130001EE01149F86803F003FB012318E0B7F91A
:103140000A307A681946F868FFF7C8FE03460FE0B0
:103150007B6880221A807B6880225A80012307E0E6
:10316000B7F90A307A681946F868FFF7B7FE0346E0
:1031700018461037BD4680BD8074000880B483B007
:1031800000AF78600B46FB70FB787A6813447B6075
:103190007B681B7818460C37BD465DF8047B70478A
:1031A00080B485B000AF78600B46FB70FB787A681E
:1031B00013447B607B681B78FB817B6801337B60F9
:1031C000FB891B02FB817B681B789AB2FB89134445
:1031D000FB81FB8918461437BD465DF8047B7047B8
:1031E00080B582B000AF7860396000213868FFF7A1
:1031F000C5FF03461A467B681A7001213868FFF73D
:10320000BDFF03461A467B685A7002213868FFF7F3
:10321000B5FF03461A467B689A7003213868FFF7AA
:10322000ADFF03461A467B68DA7004213868FFF761
:10323000A5FF03461A467B681A7105213868FFF717
:103240009DFF03461A467B685A7106213868FFF7CE
:1032500095FF03461A467B689A7107213868FFF785
:103260008DFF03461A467B68DA7108213868FFF73C
:1032700085FF03461A467B681A7209213868FFF7F2
:103280007DFF03465AB27B685A720A213868FFF7FD
:1032900075FF03465AB27B689A720B213868FFF7B4
:1032A0006DFF03465AB27B68DA720C213868FFF76B
:1032B00065FF03465AB27B681A730D213868FFF721
:1032C0005DFF03465AB27B685A730E213868FFF7D8
:1032D00055FF03465AB27B689A730F213868FFF78F
:1032E0004DFF03465AB27B68DA7310213868FFF746
:1032F00045FF03465AB27B681A7411213868FFF7FC
:103300004FFF03461A467B685A8213213868FFF73D
:1033100047FF03461A467B689A8200BF0837BD46BE
:1033200080BD80B485B000AF78600B46FB707B68D1
:103330001B7B7B737B681B681B78FB73FA7B7B7B37
:1033400042FA03F3FB737B7BBB73BA7BFB781344BA
:10335000BB73BB7B072B1AD908233B733A7B7B7B60
:10336000D31A3B737B681B685A1C7B681A607B68A6
:103370001B681B781A463B7B02FA03F35AB297F993
:103380000F3013435BB2FB73BB7B083BBB73FB7813
:103390004FF0FF3202FA03F3DBB2DB43DAB2FB7B1E
:1033A0001340FB737B68BA7B1A73FB7B1846143798
:1033B000BD465DF8047B704780B584B000AF78608F
:1033C0000B46FB70FB7819467868FFF7AAFF0346A7
:1033D000FB730123BB73FB78013BFB7097F90E2055
:1033E000FB7802FA03F3BB73FA7BBB7BD31ADBB225
:1033F000FB7397F90F3018461037BD4680BD90B467
:1034000082B000AF0446084611461A462346FB80A8
:1034100003467B710B463B711346FB70FB78012B17
:103420000BD0022B11D0002B17D197F904309AB290
:10343000FB8813449BB2FB8017E097F905309AB2E2
:10344000FB8813449BB2FB800FE0FA8897F90430A5
:103450009BB2D31A9BB2FB8007E0FA8897F905303C
:103460009BB2D31A9BB2FB8000BFB7F90630184657
:103470000837BD4690BC704790B482B000AF044698
:10348000084611461A462346FB8003467B710B46CD
:103490003B711346FB70FB78012B0BD0022B11D034
:1034A000002B17D197F905309AB2FB8813449BB2D1
:1034B000FB8017E0FA8897F904309BB2D31A9BB2CD
:1034C000FB800FE0FA8897F905309BB2D31A9BB2C4
:1034D000FB8007E097F904309AB2FB8813449BB253
:1034E000FB8000BFB7F9063018460837BD4690BCD0
:1034F000704790B589B002AF78600B46FB701346F9
:10350000BB707B6880333B61FB78FB753B6993F94B
:1035100008307B753B6993F909303B753B6993F93A
:103520000A30FB73FA7B7B7DD31AFB73FB7BBB7585
:10353000FA7DFB7B9A4201D2FB7DBB753B699B8880
:10354000BB813B69DB887B8197F9151097F91420C3
:103550003B699B7BB7F90C00FFF78EFF0346BB81ED
:1035600097F9151097F914203B699B7BB7F90A006E
:10357000FFF745FF03467B81BB78002B11D0BB7D55
:103580001CB23B699B7B1BB2B7F90A00B7F90C1060
:1035900000220192009323460246786800F0C0FBA7
:1035A00014E03B695B7B002B10D1BB7D1CB23B69F7
:1035B0009B7B1BB2B7F90A00B7F90C1001220192EC
:1035C000009323460246786800F0AAFBFA7DFB7B55
:1035D0009A4209D3FA7DFB7BD31AFB7500237B75D6
:1035E0003B7D01333B7599E700BF7A7DFB7D13443A
:1035F0007B7597F915203B691A7297F914203B697E
:103600005A7200BF1C37BD4690BD80B584B000AF74
:10361000786039607B688033FB60FB683A681A60C9
:10362000FB6800221A73FB681B685A1CFB681A604F
:10363000FB681B685A1CFB681A607B6893F894301F
:103640001946F868FFF76DFE03465AB2FB689A7296
:103650007B6893F895301946F868FFF762FE0346D9
:103660005AB2FB68DA7200BF1037BD4680BD80B524
:1036700084B000AF7860396039687868FFF7C5FFBB
:103680007B6893F88B30FB737B6803F180027B6867
:1036900093F8963019461046FFF78EFE0346BB732B
:1036A0007B6803F180027B6893F8973019461046D7
:1036B000FFF782FE03467B737B6803F180027B6821
:1036C00093F8983019461046FFF776FE03463B7391
:1036D0007B6893F98A30002B69DD7B68B3F984003D
:1036E000FA7B7B7B1344DBB25B42DBB25AB27B6872
:1036F00093F88E3097F90E10FFF7BEFE03461A4678
:103700007B68A3F884207B68B3F98600FA7B7B7B17
:103710001344DBB25B42DBB25AB27B6893F88E3063
:1037200097F90E10FFF76BFE03461A467B68A3F865
:1037300086207B68002283F888207B68002283F83B
:1037400089207B6803F180027B6893F892301946E8
:103750001046FFF7E6FD0346FB727B6803F180022B
:103760007B6893F8933019461046FFF7DAFD03465D
:10377000BB72FB7A002219467868FFF7BAFEBB7A63
:10378000012219467868FFF7B4FE7B688033012177
:103790001846FFF7C6FD0346002BEAD17B6893F974
:1037A000893097F90F209A4200DDCAE700BF97F9E8
:1037B0000C3018461037BD4680BD80B485B000AFD0
:1037C00078600B46FB707B689B6FFB60FB68153372
:1037D000FB60FB78602B07D97B68B3F8A4301A46EE
:1037E000FB681344FB6009E0FB78402B06D97B683B
:1037F000B3F8A2301A46FB681344FB60FB68013340
:103800001B78002B0ED0FB681B78FA789A4201D106
:10381000FB6809E0FB6801331B781A46FB68134418
:10382000FB60EBE700BF002318461437BD465DF888
:10383000047B704780B586B000AFF860084611463B
:103840001A4603467B810B463B811346FB710023DE
:10385000FB82FB687A89A3F88420FB683A89A3F885
:103860008620FB68FA7983F88E2097F82030194675
:10387000F868FFF7A2FF38613B69002B05D0396972
:10388000F868FFF7F4FE0346FB82B7F916301846D6
:103890001837BD4680BD80B483B000AF78600B465A
:1038A000FB707B68FA7883F88D2000BF0C37BD462B
:1038B0005DF8047B7047000080B586B002AFF86009
:1038C000084611461A4603467B810B463B81134648
:1038D000FB71FB79032B37D801A252F823F000BF0C
:1038E000F1380008073900081D390008333900088D
:1038F000FB68DB6FF868984703469AB23B8913442C
:103900009BB23B8120E0FB68DB6FF8689847034679
:103910007A899BB2D31A9BB27B8115E0FB68DB6F7F
:10392000F868984703463A899BB2D31A9BB23B8109
:103930000AE0FB68DB6FF868984703469AB27B8918
:1039400013449BB27B8100BFF879B7F90820B7F91F
:103950000A103B7E00930346F868FFF76BFF0346AF
:1039600018461037BD4680BD80B586B002AF78607E
:103970000023FB817B68BB60454B1B78002B02D08A
:10398000012B1ED07BE0434800F05DFB0346002B7B
:1039900007D041493F4800F0EFFB3D4B01221A7030
:1039A00071E03E4B1B78FF2B07D03C4B1B78184631
:1039B000FDF734FE394BFF221A70354B00221A7086
:1039C00061E0354B9B681B78002B54D0324BB3F928
:1039D0000010314BB3F902202F4B18792E4B9B6806
:1039E0001B7800930346B868FFF766FF0346FB8128
:1039F000294B1B79032B37D801A252F823F000BFC3
:103A0000113A0008273A00083D3A0008533A0008E6
:103A1000214BB3F900309AB2FB8913449BB21AB21E
:103A20001D4B1A8021E01C4BB3F902309AB2FB897E
:103A300013449BB21AB2184B5A8016E0164BB3F9D6
:103A400000309AB2FB89D31A9BB21AB2124B1A8079
:103A50000BE0114BB3F902309AB2FB89D31A9BB237
:103A60001AB20D4B5A8000E000BF0B4B9B6801332C
:103A7000094A936007E0064B00221A7003E0044BEA
:103A800000221A7000BF00BF1037BD4680BD00BFC6
:103A9000B0160020A0060020841800204E00002050
:103AA00080B58AB002AFF860084611461A46034650
:103AB0007B810B463B811346FB710023FB837B8993
:103AC0003B823B897B82FB793B75BB6ABB6107F11B
:103AD000100319460C4800F001FB0C4B1B78FF2B20
:103AE0000BD1FB6800930A4BFF221E210948FDF70A
:103AF00033FD03461A46054B1A70B7F91E301846B7
:103B00002037BD4680BD00BFA00600204E0000202B
:103B100069390008B073000880B483B000AF7860E2
:103B20007B689B6F002B5DD07B6893F99D207B6841
:103B300083F8AC207B6893F99E207B6883F8AD20E6
:103B40007B6893F8AB30002B4DD07B6893F8AB309B
:103B5000012B1CD17B6893F9AC207B6893F99F30D3
:103B60009A4205DA7B6893F99F207B6883F8AC2042
:103B70007B6893F9AD207B6893F9A0309A4232DDDF
:103B80007B6893F9A0207B6883F8AD202BE07B68ED
:103B900093F9AC301A467B6893F99A3019467B68E2
:103BA00093F99C300B449A420DDA7B6893F99A3072
:103BB000DAB27B6893F99C30DBB21344DBB25AB2C1
:103BC0007B6883F8AC207B6893F9AD207B6893F920
:103BD0009C309A4207DD7B6893F99C207B6883F8D0
:103BE000AD2000E000BF0C37BD465DF8047B704798
:103BF00080B483B000AF7860002318460C37BD4610
:103C00005DF8047B7047000080B483B000AF78603B
:103C10007B68044ADA6700BF0C37BD465DF8047B59
:103C2000704700BFF13B000880B582B000AF7860FC
:103C300039607B689B6F3A689A4212D07B683A6819
:103C40009A677B68903339681846FFF7C9FA786835
:103C5000FFF762FF4FF480530C220449044800F040
:103C6000D7F900BF0837BD4680BD00BFA0060020C1
:103C7000B006002080B483B000AF78607A68137813
:103C80006FF3000313707B6800221A617B680122C6
:103C90005A867B6800229A677B68012283F88D2010
:103CA0007B68002283F8AE207B68002283F8AF2077
:103CB0007B68002283F8B02000BF0C37BD465DF85A
:103CC000047B704780B586B000AFF860B9607A6059
:103CD0003B60F868FFF7CEFF7B68002B03D1FB68E1
:103CE0000E4ADA6002E0FB687A68DA60FB68BA685C
:103CF0009A60FB683A68DA61F868FFF785FFF86850
:103D0000FFF796F90346FB82F868FFF7D6F9B7F993
:103D1000163018461837BD4680BD00BF952C0008E8
:103D200080B584B000AFF860084611461A460346D5
:103D30007B810B463B811346FB80B7F91C20F96859
:103D400013465B0013440B443A331A78FB6883F83C
:103D50002820B7F91C20F96813465B0013440B4474
:103D60003B331A78FB6883F82920B7F91C20F968DF
:103D700013465B0013440B443C331A78FB6883F80A
:103D80002A20FB687A899A84FB683A89DA84FB687E
:103D9000FA889A85FB683A8BDA85F868FFF79FF90D
:103DA00000BF1037BD4680BD80B586B002AFF86059
:103DB000084611461A4603467B810B463B81134653
:103DC000FB80B7F90600B7F90820B7F90A100023FD
:103DD0000193002300930346F868FFF7A1FF00BF9B
:103DE0001037BD4680BD80B483B000AF7860084610
:103DF00011461A460346FB700B46BB7013467B7098
:103E0000FA78796813465B0013440B443A33BA7866
:103E10001A70FA78796813465B0013440B443B33FD
:103E20007A781A70FA78796813465B0013440B4469
:103E30003C333A7C1A7000BF0C37BD465DF8047BFA
:103E4000704780B582B000AF78607B681B69002B3B
:103E500006D07B681A697B689A607B6800221A61C9
:103E60007868FFF72AF97868FFF70FF900BF08377D
:103E7000BD4680BD80B485B000AF786039607B6896
:103E8000DB8AFB81FA893B68B3F902309BB2D31A13
:103E90009BB2FB81B7F90E309BB2013B9BB2FB8119
:103EA0003B68FA895A807B689B8ABB81BA893B68E8
:103EB000B3F900309BB2D31A9BB2BB81B7F90C3077
:103EC0009BB2013B9BB2BB813B68BA891A8000BFA1
:103ED0001437BD465DF8047B7047000080B584B0A0
:103EE00000AFF8600B467A607B81B7F90A300C3B73
:103EF0000B2B66D801A252F823F000BF4B3F0008FD
:103F0000C33F0008C33F00082D3F0008C33F00081F
:103F1000C33F0008C33F0008C33F0008933F0008A9
:103F2000933F0008C33F0008933F0008FB681B69EC
:103F3000FA681432B7F90A10F86898477A68FB688B
:103F4000143318681060012343E07B68B3F9023032
:103F50009AB27B68B3F906309BB213449BB2013B23
:103F60009BB21AB27B685A807B68B3F900309AB270
:103F70007B68B3F904309BB213449BB2013B9BB204
:103F80001AB27B681A807B681946F868FFF772FFDF
:103F900017E0FB68B3F92E309BB202339BB21AB222
:103FA000FB68DA85FB68B3F92E3003F003031AB21D
:103FB000FB68DA85FB6824331946F868FFF75AFF77
:103FC00000BFFB681B69B7F90A107A68F868984760
:103FD000034618461037BD4680BD00BF80B582B08D
:103FE00000AF78607868FFF72CFF7B689A687B6881
:103FF0001A617B68054A9A607868FFF75EF878680E
:10400000FFF743F800BF0837BD4680BDDD3E00081E
:1040100080B584B000AFF860B96011461A460B460F
:10402000FB711346BB80BB68BA881A80BB68FA79FB
:104030001A71BB68FA68DA60B86800F036F800BF39
:104040001037BD4680BD80B483B000AF78607B6818
:104050005B8818460C37BD465DF8047B704780B41A
:1040600083B000AF78607B685A887B681B889A426F
:104070002CBF01230023DBB218460C37BD465DF888
:10408000047B704780B483B000AF78607B68DA88C7
:104090007B681B899A420CBF01230023DBB21846C0
:1040A0000C37BD465DF8047B704780B582B000AF29
:1040B00078607B680022DA807B6800221A817B6846
:1040C00000225A807B68D8687B681B881A460021CA
:1040D00000F094F800BF0837BD4680BD80B584B0BD
:1040E00000AF7860396072B60023FB7321E0FB7B80
:1040F0003A681A447B68DB687968C9880B4412788F
:104100001A707B68DB8801339BB21AB27B681B880C
:10411000013B9BB21BB213401BB29AB27B68DA80A0
:104120007B685B8801339AB27B685A80FB7B0133E2
:10413000FB737B681B79FA7B9A42D8D37868FFF7C8
:104140008EFF0346002B11D07B681A897B681B7990
:104150009BB213449BB21AB27B681B88013B9BB293
:104160001BB213401BB29AB27B681A8162B600235D
:1041700018461037BD4680BD80B584B000AF78606A
:10418000396072B67868FFF77DFF0346002B05D0D3
:104190007B6800225A8062B602232BE00023FB7367
:1041A00021E07B68DB687A6812891A44FB7B3968F6
:1041B0000B4412781A707B681B8901339BB21AB2C8
:1041C0007B681B88013B9BB21BB213401BB29AB2A7
:1041D0007B681A817B685B88013B9AB27B685A8056
:1041E000FB7B0133FB737B681B79FA7B9A42D8D344
:1041F00062B6002318461037BD4680BD80B483B038
:1042000000AF78600B46FB7013463B8004E07B6890
:104210005A1C7A60FA781A703B885A1E3A80002B32
:10422000F5D100BF0C37BD465DF8047B7047000038
:1042300080B483B000AF7860064A7B6843F0BF6308
:1042400043F40033D36000BF0C37BD465DF8047BF8
:10425000704700BF00ED00E080B485B000AF78602B
:104260000023FB730023BB730F237B737B68DB7816
:10427000002B39D0274BDB68DB431B0ADBB203F092
:104280000703FB73FB7BC3F10403BB737A7BFB7BEC
:1042900042FA03F37B737B685B781A46BB7B02FAB6
:1042A00003F3FB737B689A787B7B1340DAB2FB7B6A
:1042B0001343FB73FB7B1B01FB73174A7B681B7863
:1042C0001344FA7B83F800237B681B7803F01F03F9
:1042D00011497A6812785209D2B21046012202FAC4
:1042E00003F341F820300FE07B681B7803F01F03D5
:1042F00009497A6812785209D2B2104601229A40CE
:1043000000F1200341F8232000BF1437BD465DF8BB
:10431000047B704700ED00E000E100E080B500AFF5
:1043200001214FF4807000F083FF00214FF4807072
:1043300000F07EFF00BF80BD80B485B000AF786024
:1043400039600023FB600023FB727B685B68FB60C5
:10435000FB6823F0407323F48073FB603B681B7998
:104360001A023B681B681343FA681343FB607B68BF
:10437000FA685A607B689B68FB60FA68184B1340C8
:10438000FB603B681A693B68DB681A433B689B68C3
:104390001A433B685B795B001343FA681343FB6085
:1043A0007B68FA689A607B68DB6AFB60FB6823F4D1
:1043B0007003FB603B681B7D013BDAB2FB7A134361
:1043C000FB72FB7A1B05FA681343FB607B68FA6893
:1043D000DA6200BF1437BD465DF8047B704700BF4A
:1043E000FDF7FFC080B485B000AF78600023FB60AC
:1043F0000E4B5B68FB60FA680D4B1340FB607B68FB
:104400001A687B685B681A437B689B681A437B6801
:10441000DB681343FA681343FB60044AFB6853608C
:1044200000BF1437BD465DF8047B70470023014090
:10443000E030FCFF80B483B000AF78600B46FB70C7
:10444000FB78002B06D07B689B6843F001027B68F9
:104450009A6005E07B689B6823F001027B689A60A4
:1044600000BF0C37BD465DF8047B704780B485B053
:1044700000AF7860084611461A460346FB700B46AB
:10448000BB7013467B700023FB600023BB60FB788E
:10449000092B23D97B68DB68FB60FB78A3F10A0258
:1044A00013465B001344072202FA03F3BB60BB68A8
:1044B000DB43FA681340FB607978FB78A3F10A02CA
:1044C00013465B00134401FA03F3BB60FA68BB6850
:1044D0001343FB607B68FA68DA601EE07B681B6947
:1044E000FB60FA7813465B001344072202FA03F3D9
:1044F000BB60BB68DB43FA681340FB607978FA78ED
:1045000013465B00134401FA03F3BB60FA68BB680F
:104510001343FB607B68FA681A61BB78062B21D8CD
:104520007B685B6BFB60BB785A1E13469B00134491
:104530001F2202FA03F3BB60BB68DB43FA68134037
:10454000FB60F978BB785A1E13469B00134401FAAE
:1045500003F3BB60FA68BB681343FB607B68FA68CF
:104560005A6347E0BB780C2B21D87B681B6BFB6040
:10457000BB78DA1F13469B0013441F2202FA03F391
:10458000BB60BB68DB43FA681340FB60F978BB781B
:10459000DA1F13469B00134401FA03F3BB60FA6869
:1045A000BB681343FB607B68FA681A6322E07B6890
:1045B000DB6AFB60BB78A3F10D0213469B0013443A
:1045C0001F2202FA03F3BB60BB68DB43FA681340A7
:1045D000FB60F978BB78A3F10D0213469B001344EE
:1045E00001FA03F3BB60FA68BB681343FB607B68A6
:1045F000FA68DA6200BF1437BD465DF8047B704785
:1046000080B483B000AF78607B689B6843F08042E1
:104610007B689A6000BF0C37BD465DF8047B70472D
:1046200080B483B000AF78600B46FB70FB78002B42
:1046300006D07B689B6843F480627B689A6005E0E3
:104640007B689B6823F480627B689A6000BF0C37AC
:10465000BD465DF8047B704780B483B000AF7860DE
:104660000B46FB70FB78002B06D07B689B6843F001
:1046700002027B689A6005E07B689B6823F0020277
:104680007B689A6000BF0C37BD465DF8047B7047BD
:1046900080B485B000AF78600B46FB700023FB60F0
:1046A0000023BB607B685B68FB60FB6823F46043AE
:1046B000FB60FB78013BBB60BB685B03FA6813439C
:1046C000FB607B68FA685A6000BF1437BD465DF82E
:1046D000047B704780B483B000AF78600B46FB70FA
:1046E000FB78002B06D07B685B6843F400627B6834
:1046F0005A6005E07B685B6823F400627B685A605F
:1047000000BF0C37BD465DF8047B704780B483B0B2
:1047100000AF78600B46FB70FB78002B06D07B68FF
:104720009B6843F480727B689A6005E07B689B68B5
:1047300023F480727B689A6000BF0C37BD465DF839
:10474000047B704780B483B000AF78600B46FB7089
:10475000FB78002B06D07B689B6843F400727B6873
:104760009A6005E07B689B6823F400727B689A601E
:1047700000BF0C37BD465DF8047B704780B483B042
:1047800000AF78607B681B6823F001027B681A60C9
:104790007B6800221A607B6800225A607B680022D6
:1047A0009A607B680022DA607B6800221A617B686D
:1047B00021225A617B68464A934203D1454B3D22F0
:1047C0009A607EE07B68444A934204D1414B4FF4A7
:1047D00074629A6075E07B68404A934204D13D4B15
:1047E0004FF474129A606CE07B683D4A934204D1A6
:1047F000384B4FF074629A6063E07B68394A9342A9
:1048000003D1344B384ADA605BE07B68374A934225
:1048100003D1304B364ADA6053E07B68354A934225
:1048200003D12C4B344ADA604BE07B68334A934225
:1048300004D1284B4FF03D52DA6042E07B68304AA9
:10484000934203D12F4B3D229A603AE07B682E4A77
:10485000934204D12B4B4FF474629A6031E07B6831
:104860002A4A934204D1274B4FF474129A6028E0ED
:104870007B68274A934204D1224B4FF074629A60BE
:104880001FE07B68234A934203D11E4B164ADA602D
:1048900017E07B68204A934203D11A4B144ADA602E
:1048A0000FE07B681D4A934203D1164B124ADA602F
:1048B00007E07B681A4A934203D1124B4FF03D52F6
:1048C000DA6000BF0C37BD465DF8047B704700BF5F
:1048D00010600240006002402860024040600240D8
:1048E00058600240706002403D0000208860024035
:1048F000400F0020A060024000003D20B860024050
:104900001064024000640240286402404064024097
:10491000586402407064024088640240A06402400F
:10492000B864024080B485B000AF7860396000237D
:10493000FB607B681B68FB60FA68254B1340FB60DB
:104940003B681A683B68DB681A433B685B691A433B
:104950003B689B691A433B68DB691A433B681B6AE7
:104960001A433B685B6A1A433B689B6A1A433B687D
:104970005B6B1A433B689B6B1343FA681343FB6002
:104980007B68FA681A607B685B69FB60FB6823F0F0
:104990000703FB603B68DA6A3B681B6B1343FA68EA
:1049A0001343FB607B68FA685A613B681A697B684D
:1049B0005A603B685A687B689A603B689A687B6873
:1049C000DA6000BF1437BD465DF8047B704700BF56
:1049D0003F801CF080B483B000AF78600B46FB7062
:1049E000FB78002B06D07B681B6843F001027B68D4
:1049F0001A6005E07B681B6823F001027B681A607F
:104A000000BF0C37BD465DF8047B704780B487B0AB
:104A100000AF7860396000237B6100233B61002395
:104A2000FB6000237B6176E001227B6902FA03F3DD
:104A30003B613B681B683A691340FB60FA683B695D
:104A40009A4265D17B681A687B695B00032101FA91
:104A500003F3DB431A407B681A607B681A683B6883
:104A60001B7919467B695B0001FA03F31A437B68E3
:104A70001A603B681B79012B03D03B681B79022B22
:104A80002ED17B689A687B695B00032101FA03F3EE
:104A9000DB431A407B689A607B689A683B685B7965
:104AA00019467B695B0001FA03F31A437B689A603D
:104AB0007B685A687B699BB2194601238B40DB43B4
:104AC0001A407B685A607B685B683A689279114645
:104AD0007A6992B201FA02F292B21A437B685A6082
:104AE0007B68DA687B699BB25B00032101FA03F300
:104AF000DB431A407B68DA607B68DA683B68DB7905
:104B000019467B695B0001FA03F31A437B68DA609C
:104B10007B6901337B617B690F2B85D900BF1C3713
:104B2000BD465DF8047B704780B485B000AF786007
:104B30000B467B800023FB737B681A697B881340DC
:104B4000002B02D00123FB7301E00023FB73FB7BEE
:104B500018461437BD465DF8047B704780B483B0B7
:104B600000AF78600B467B807B687A881A8300BF31
:104B70000C37BD465DF8047B704780B483B000AF4E
:104B800078600B467B807B687A885A8300BF0C373D
:104B9000BD465DF8047B704780B483B000AF786099
:104BA0000B467B8013467B707B78002B03D07B68A1
:104BB0007A881A8302E07B687A885A8300BF0C37B0
:104BC000BD465DF8047B704780B485B000AF786067
:104BD0000B467B8013467B700023FB600023BB6089
:104BE0007A787B8803F007039B0002FA03F3FB60EB
:104BF0007B88DB089BB21A467B68083253F8222078
:104C00007B8803F007039B000F2101FA03F3DB43CA
:104C10007988C90889B2084602EA03017B6800F175
:104C2000080243F822107B88DB089BB21A467B6897
:104C3000083253F82230FA681343BB607B88DB08E4
:104C40009BB21A467B680832B96843F8221000BF4D
:104C50001437BD465DF8047B7047000080B58AB00C
:104C600000AF786039600023FB8400237B84042339
:104C7000BB84574BFB617B689B88FB84FB8C23F0D8
:104C80003F03FB8407F10C03184600F0C9F97B6968
:104C9000FB61FB694F4AA2FB03239B0C7B84FA8CCC
:104CA0007B8C1343FB847B68FA8C9A807B681B881F
:104CB0009BB223F001039AB27B681A800023FB8425
:104CC0003B681B68444A934215D83B681B685B00ED
:104CD000FA69B2FBF3F3BB84BB8C032B01D804232A
:104CE000BB84FA8CBB8C1343FB847B8C01339AB25C
:104CF0007B681A8440E03B68DB884BF6FF72934286
:104D000009D13B681A6813465B001344FA69B2FB89
:104D1000F3F3BB840EE03B681A6813469B00134410
:104D20009A001344FA69B2FBF3F3BB84BB8C43F4DF
:104D30008043BB84BB8CC3F30B03002B03D1BB8C20
:104D400043F00103BB84BA8CFB8C13439BB26FEA24
:104D500043436FEA5343FB847B8C4FF4967202FB10
:104D600003F31E4A82FB03129211DB17D31A9BB284
:104D700001339AB27B681A847B68FA8C9A837B68C9
:104D80001B889BB243F001039AB27B681A807B6850
:104D90001B88FB84FB8C23F4816323F00203FB84D8
:104DA0003B689A883B685B8913439AB2FB8C134338
:104DB000FB847B68FA8C1A803B689A893B681B8964
:104DC00013439AB27B681A8100BF2837BD4680BD65
:104DD00000127A0083DE1B43A0860100D34D6210CF
:104DE00080B483B000AF78600B46FB70FB78002B7B
:104DF00008D07B681B889BB243F001039AB27B68A2
:104E00001A8007E07B681B889BB223F001039AB2EB
:104E10007B681A8000BF0C37BD465DF8047B704785
:104E200080B483B000AF78600B46FB70FB78002B3A
:104E300008D07B681B889BB243F480739AB27B686E
:104E40001A8007E07B681B889BB223F480739AB2B8
:104E50007B681A8000BF0C37BD465DF8047B704745
:104E600080B483B000AF78600B46FB70FB78002BFA
:104E700008D07B681B889BB243F400739AB27B68AE
:104E80001A8007E07B681B889BB223F400739AB2F8
:104E90007B681A8000BF0C37BD465DF8047B704705
:104EA00080B483B000AF78600B46FB701346BB70D4
:104EB000BB78002B04D0FB7843F00103FB7003E0C8
:104EC000FB7823F00103FB70FB789AB27B681A82AF
:104ED00000BF0C37BD465DF8047B704780B483B0DB
:104EE00000AF78600B46FB70FB78002B08D07B6826
:104EF0001B889BB243F480639AB27B681A8007E0F8
:104F00007B681B889BB223F480639AB27B681A800B
:104F100000BF0C37BD465DF8047B704780B483B09A
:104F200000AF78600B46FB70FB789AB27B681A8200
:104F300000BF0C37BD465DF8047B704780B483B07A
:104F400000AF78607B681B8A9BB2DBB218460C37D7
:104F5000BD465DF8047B704780B487B000AF7860D1
:104F6000396000233B610023FB600023BB6000230A
:104F7000FB757B689B8A9BB2FB607B681B8B9BB23B
:104F8000BB60BB681B04BB60FA68BB68134323F0BB
:104F90007F433B613A693B6813403A689A4202D1C9
:104FA0000123FB7501E00023FB75FB7D18461C37D0
:104FB000BD465DF8047B704780B487B000AF786071
:104FC00039600023FB7500233B610023FB607B6895
:104FD000FB603B681B0F3B613B6823F07F433B60FA
:104FE0003B69002B03D0FB681433FB6005E03B6892
:104FF0001B0C3B60FB681833FB60FB681A683B685E
:105000001340002B02D00123FB7501E00023FB7548
:10501000FB7D18461C37BD465DF8047B70470000D9
:1050200080B489B000AF78600023BB6100237B614E
:105030000023FB6102233B610023FB600223BB6072
:10504000474B9B6803F00C03BB61BB69042B07D083
:10505000082B09D0002B3DD17B68424A1A603DE005
:105060007B68414A1A6039E03D4B5B689B0D03F059
:105070000103FB603A4B5B6803F03F03BB60FB68D6
:10508000002B0CD0384ABB68B2FBF3F3344A5268A9
:105090009209C2F3080202FB03F3FB610BE0314A01
:1050A000BB68B2FBF3F32E4A52689209C2F30802BE
:1050B00002FB03F3FB612A4B5B681B0C03F0030349
:1050C00001335B003B61FA693B69B2FBF3F27B6839
:1050D0001A6003E07B68234A1A6000BF204B9B687C
:1050E00003F0F003BB61BB691B09BB611F4ABB69CD
:1050F00013441B78DBB27B617B681A687B69DA40FA
:105100007B685A60164B9B6803F4E053BB61BB6934
:105110009B0ABB61154ABB6913441B78DBB27B61F8
:105120007B685A687B69DA407B689A600C4B9B68A5
:1051300003F46043BB61BB695B0BBB610B4ABB699A
:1051400013441B78DBB27B617B685A687B69DA4069
:105150007B68DA6000BF2437BD465DF8047B70478A
:10516000003802400024F40040787D015000002007
:1051700080B483B000AF78600B46FB70FB78002BE7
:1051800006D00A4B1A6B09497B6813430B6306E090
:10519000064B1A6B7B68DB43044913400B6300BF6B
:1051A0000C37BD465DF8047B704700BF00380240F5
:1051B00080B483B000AF78600B46FB70FB78002BA7
:1051C00006D00A4B1A6C09497B6813430B6406E04E
:1051D000064B1A6C7B68DB43044913400B6400BF29
:1051E0000C37BD465DF8047B704700BF00380240B5
:1051F00080B483B000AF78600B46FB70FB78002B67
:1052000006D00A4B5A6C09497B6813434B6406E08D
:10521000064B5A6C7B68DB43044913404B6400BF68
:105220000C37BD465DF8047B704700BF0038024074
:1052300080B483B000AF78600B46FB70FB78002B26
:1052400006D00A4B5A6A09497B6813434B6206E051
:10525000064B5A6A7B68DB43044913404B6200BF2C
:105260000C37BD465DF8047B704700BF0038024034
:1052700080B485B000AF786039600023FB817B6823
:105280001B88FB817B68294A934213D07B68284A9C
:1052900093420FD07B68B3F1804F0BD07B68254AD7
:1052A000934207D07B68244A934203D07B68234A09
:1052B000934208D1FB8923F07003FB813B685A8835
:1052C000FB891343FB817B681D4A93420CD07B68AA
:1052D0001C4A934208D0FB8923F44073FB813B684E
:1052E0001A89FB891343FB817B68FA891A803B6822
:1052F0005A687B68DA623B681A887B681A857B6823
:105300000A4A934203D07B68094A934204D13B681E
:105310009B7A9AB27B681A867B6801229A8200BFC8
:105320001437BD465DF8047B704700BF00000140A4
:10533000000401400004004000080040000C004050
:10534000001000400014004080B483B000AF7860CB
:105350000B46FB70FB78002B08D07B681B889BB248
:1053600043F001039AB27B681A8007E07B681B88D0
:105370009BB223F001039AB27B681A8000BF0C37FE
:10538000BD465DF8047B704780B485B000AF78609F
:10539000396000237B810023FB810023BB817B6874
:1053A0001B8C9BB223F001039AB27B681A847B6842
:1053B0001B8CFB817B689B88BB817B681B8B7B8103
:1053C0007B8923F070037B817B8923F003037B813E
:1053D0003B681A887B8913437B81FB8923F0020396
:1053E000FB813B689A89FB891343FB813B685A88A0
:1053F000FB891343FB817B681E4A934203D07B6881
:105400001D4A934223D1FB8923F00803FB813B68AB
:10541000DA89FB891343FB81FB8923F00403FB81B9
:105420003B689A88FB891343FB81BB8923F4807313
:10543000BB81BB8923F40073BB813B681A8ABB899B
:105440001343BB813B685A8ABB891343BB817B688A
:10545000BA899A807B687A891A833B689A687B68E4
:105460005A637B68FA891A8400BF1437BD465DF819
:10547000047B7047000001400004014080B485B007
:1054800000AF7860396000237B810023FB8100231B
:10549000BB817B681B8C9BB223F010039AB27B68A4
:1054A0001A847B681B8CFB817B689B88BB817B6833
:1054B0001B8B7B817B8923F4E0437B817B8923F4F5
:1054C00040737B813B681B881B029AB27B89134324
:1054D0007B81FB8923F02003FB813B689B891B01B7
:1054E0009AB2FB891343FB813B685B881B019AB22C
:1054F000FB891343FB817B68224A934203D07B687C
:10550000214A93422BD1FB8923F08003FB813B6826
:10551000DB891B019AB2FB891343FB81FB8923F0D2
:105520004003FB813B689B881B019AB2FB891343B4
:10553000FB81BB8923F48063BB81BB8923F40063B7
:10554000BB813B681B8A9B009AB2BB891343BB811A
:105550003B685B8A9B009AB2BB891343BB817B6823
:10556000BA899A807B687A891A833B689A687B68D3
:105570009A637B68FA891A8400BF1437BD465DF8C8
:10558000047B7047000001400004014080B485B0F6
:1055900000AF7860396000237B810023FB8100230A
:1055A000BB817B681B8C9BB223F480739AB27B68AF
:1055B0001A847B681B8CFB817B689B88BB817B6822
:1055C0009B8B7B817B8923F070037B817B8923F01C
:1055D00003037B813B681A887B8913437B81FB89AA
:1055E00023F40073FB813B689B891B029AB2FB8901
:1055F0001343FB813B685B881B029AB2FB89134310
:10560000FB817B68224A934203D07B68214A934204
:105610002BD1FB8923F40063FB813B68DB891B02F0
:105620009AB2FB891343FB81FB8923F48063FB81DE
:105630003B689B881B029AB2FB891343FB81BB89A1
:1056400023F48053BB81BB8923F40053BB813B68A7
:105650001B8A1B019AB2BB891343BB813B685B8ADF
:105660001B019AB2BB891343BB817B68BA899A80BC
:105670007B687A899A833B689A687B68DA637B687F
:10568000FA891A8400BF1437BD465DF8047B704761
:10569000000001400004014080B485B000AF786094
:1056A00039600023BB8100237B810023FB817B6861
:1056B0001B8C9BB223F480539AB27B681A847B685C
:1056C0001B8C7B817B689B88FB817B689B8BBB8170
:1056D000BB8923F4E043BB81BB8923F44073BB81C6
:1056E0003B681B881B029AB2BB891343BB817B8931
:1056F00023F400537B813B689B891B039AB27B890F
:1057000013437B813B685B881B039AB27B891343FD
:105710007B817B68124A934203D07B68114A934293
:105720000AD1FB8923F48043FB813B681B8A9B01E0
:105730009AB2FB891343FB817B68FA899A807B6864
:10574000BA899A833B689A687B681A647B687A890D
:105750001A8400BF1437BD465DF8047B704700BF54
:10576000000001400004014080B483B000AF7860C5
:1057700039607B683A685A6300BF0C37BD465DF8F4
:10578000047B704780B483B000AF786039607B6879
:105790003A689A6300BF0C37BD465DF8047B7047DA
:1057A00080B483B000AF786039607B683A68DA63B0
:1057B00000BF0C37BD465DF8047B704780B483B0F2
:1057C00000AF786039607B683A681A6400BF0C37B4
:1057D000BD465DF8047B704780B483B000AF78604D
:1057E0000B46FB70FB78002B0CD07B68B3F8443081
:1057F0009BB26FEA43436FEA53439AB27B68A3F8C4
:10580000442009E07B68B3F844309BB2C3F30E0335
:105810009AB27B68A3F8442000BF0C37BD465DF800
:10582000047B704780B58AB000AF78603960002390
:105830007B6200233B620023FB610023BB617B682A
:105840001B8A9BB27B627B6A23F440537B623B687A
:10585000DB881A467B6A13437B627B6A9AB27B6859
:105860001A827B689B899BB27B627B6A23F4B0536C
:1058700023F00C037B623B689A883B681B891343C7
:105880009AB23B685B8913439BB21A467B6A134307
:105890007B627B6A9AB27B689A817B689B8A9BB2A7
:1058A0007B627B6A23F440737B623B689B891A4668
:1058B0007B6A13437B627B6A9AB27B689A8207F1A8
:1058C00008031846FFF7ACFB7B68304A934203D0CD
:1058D0007B682F4A934202D17B693B6201E03B69BE
:1058E0003B627B689B899BB21BB2002B0CDA3A6A45
:1058F00013469B0013449A001A443B681B685B00E4
:10590000B2FBF3F3FB610BE03A6A13469B001344CE
:105910009A001A443B681B689B00B2FBF3F3FB61DF
:10592000FB691C4AA2FB03235B091B017B627B6AA8
:105930001B09642202FB03F3FA69D31ABB617B687B
:105940009B899BB21BB2002B0CDABB69DB003233A4
:10595000104AA2FB03235B0903F007037A6A13438F
:105960007B620BE0BB691B0132330A4AA2FB0323B3
:105970005B0903F00F037A6A13437B627B6A9AB276
:105980007B681A8100BF2837BD4680BD00100140EA
:10599000001401401F85EB5180B483B000AF7860E4
:1059A0000B46FB70FB78002B08D07B689B899BB271
:1059B00043F400539AB27B689A8107E07B689B8925
:1059C0009BB223F400539AB27B689A8100BF0C37D4
:1059D000BD465DF8047B704780B483B000AF78604B
:1059E0000B467B807B88C3F308039AB27B689A805E
:1059F00000BF0C37BD465DF8047B704780B483B0B0
:105A000000AF78607B689B889BB2C3F308039BB2AE
:105A100018460C37BD465DF8047B704780B487B0EC
:105A200000AF78600B467B8013467B7000233B61A0
:105A30000023FB600023BB6000237B617B687B61EC
:105A40007B88DBB25B09DBB23B617B8803F01F0321
:105A5000FB600122FB6802FA03F3BB603B69012B88
:105A600003D17B690C337B6109E03B69022B03D1D5
:105A70007B6910337B6102E07B6914337B617B7847
:105A8000002B06D07B6919687B69BA680A431A60E3
:105A900006E07B691968BB68DA437B690A401A60D3
:105AA00000BF1C37BD465DF8047B704780B485B0ED
:105AB00000AF78600B467B800023FB737B681B88FC
:105AC0009AB27B8813409BB2002B02D00123FB7358
:105AD00001E00023FB73FB7B18461437BD465DF8DD
